:020000040000FA
:100000000C94A5050C94CD050C94CD050C94CD0550
:100010000C94CD050C94CD050C94CD050C94CD0518
:100020000C94CD050C94CD050C94CD050C94CD0508
:100030000C94CD050C94CD050C94CD050C94CD05F8
:100040000C947F1A0C94CD050C944D1A0C94271A1D
:100050000C94CD050C94CD050C94CD050C94CD05D8
:100060000C94C91A0C94CD0500000000003E5B4FB3
:100070005B3E3E6B4F6B3E1C3E7C3E1C183C7E3C08
:10008000181C577D571C1C5E7F5E1C00183C180016
:10009000FFE7C3E7FF0018241800FFE7DBE7FF30A6
:1000A000483A060E2629792926407F050507407F14
:1000B00005253F5A3CE73C5A7F3E1C1C08081C1C87
:1000C0003E7F14227F22145F5F005F5F06097F017D
:1000D0007F006689956A606060606094A2FFA29468
:1000E00008047E040810207E201008082A1C080836
:1000F0001C2A08081E101010100C1E0C1E0C303884
:100100003E3830060E3E0E06000000000000005F84
:1001100000000007000700147F147F14242A7F2AA0
:100120001223130864623649562050000807030062
:10013000001C2241000041221C002A1C7F1C2A08AE
:10014000083E080800807030000808080808000011
:1001500060600020100804023E5149453E00427F85
:10016000400072494949462141494D331814127FD4
:100170001027454545393C4A494931412111090774
:100180003649494936464949291E000014000000F5
:1001900040340000000814224114141414140041C7
:1001A00022140802015909063E415D594E7C121184
:1001B000127C7F494949363E414141227F414141BC
:1001C0003E7F494949417F090909013E4141517337
:1001D0007F0808087F00417F41002040413F017FA8
:1001E000081422417F404040407F021C027F7F0470
:1001F00008107F3E4141413E7F090909063E4151B9
:10020000215E7F09192946264949493203017F01A8
:10021000033F4040403F1F2040201F3F4038403FA9
:10022000631408146303047804036159494D4300BF
:100230007F4141410204081020004141417F0402F6
:10024000010204404040404000030708002054548D
:1002500078407F284444383844444428384444286B
:100260007F385454541800087E090218A4A49C78BE
:100270007F0804047800447D40002040403D007F1A
:100280001028440000417F40007C047804787C08FA
:100290000404783844444438FC18242418182424CE
:1002A00018FC7C08040408485454542404043F44B3
:1002B000243C4040207C1C2040201C3C4030403CE2
:1002C00044281028444C9090907C4464544C440042
:1002D00008364100000077000000413608000201A6
:1002E0000204023C2623263C1EA1A161123A404092
:1002F000207A38545455592155557941225454780F
:1003000042215554784020545579400C1E527212A7
:100310003955555559395454545939555454580030
:1003200000457C410002457D420001457C407D1234
:1003300011127DF0282528F07C5455450020545496
:100340007C547C0A097F4932494949323A44444441
:100350003A324A4848303A4141217A3A424020787C
:10036000009DA0A07D3D4242423D3D4040403D3C7D
:1003700024FF2424487E4943662B2FFC2F2BFF09A2
:1003800029F620C0887E0903205454794100004496
:100390007D413048484A32384040227A007A0A0A81
:1003A000727D0D19317D2629292F282629292926F4
:1003B00030484D4020380808080808080808382F39
:1003C00010C8ACBA2F102834FA00007B00000814C3
:1003D0002A142222142A14085500550055AA55AA99
:1003E00055AAFF55FF55FF000000FF00101010FF39
:1003F00000141414FF001010FF00FF1010F010F094
:10040000141414FC001414F700FF0000FF00FF1484
:1004100014F404FC141417101F10101F101F1414D0
:10042000141F00101010F0000000001F101010101A
:100430001F10101010F010000000FF10101010100E
:1004400010101010FF10000000FF140000FF00FF4C
:1004500000001F10170000FC04F4141417101714E8
:1004600014F404F40000FF00F7141414141414140A
:10047000F700F7141414171410101F101F1414147D
:10048000F4141010F010F000001F101F0000001FE7
:1004900014000000FC140000F010F01010FF10FF1A
:1004A000141414FF141010101F00000000F010FFAF
:1004B000FFFFFFFFF0F0F0F0F0FFFFFF0000000093
:1004C00000FFFF0F0F0F0F0F3844443844FC4A4A17
:1004D0004A347E02020606027E027E0263554941CC
:1004E000633844443C04407E201E2006027E020203
:1004F00099A5E7A5991C2A492A1C4C7201724C3017
:100500004A4D4D303048784830BC625A463D3E49ED
:100510004949007E0101017E2A2A2A2A2A44445F91
:10052000444440514A444040444A51400000FF0185
:1005300003E080FF000008086B6B08361236243693
:10054000060F090F060000181800000010100030F8
:1005500040FF0101001F01011E00191D1712003C80
:100560003C3C3C0000000000EF03038002CF03008E
:10057000C130ED0464031281E803850078CB0539AE
:100580002C003402F70120EA020000C00123C1015F
:1005900010C5023E28C701863601483701003A01DE
:1005A00055B1020018B603088227F20100260101A6
:1005B000E00F0F312B0C0E084EF1370710030E0918
:1005C00000E10F000E1403110731C148080F0C3170
:1005D000360F118029800000000000240027002A27
:1005E0000000000000230026002900000000080091
:1005F000020100000304070000000000000000FFEB
:10060000FFFFFFFFFFFFFFFFFFFFFFF0FFFFFFFF09
:10061000FFFFFFFFFFFFFFFFF0FFFFFFFFFFFFFFF9
:10062000FFFFFFFFFFF0FFFFFFFFFFFFFFFFFFFFE9
:10063000FFFFF0FFFFFFFFFFFFFFFFFFFFFFFFF0E8
:10064000FFFFFFFFFFFFFFFFFFFFFFFFF0FFFFFFC9
:10065000FFFFFFFFFFFFFFFFFFF0FFFFFFFFFFFFB9
:10066000FFFFFFFFFFFFF0FFFFFFFFFFFFFFFFFFA9
:10067000FFFFFFF0FFFFFFFFFFFFFFFFFFFFFFFF99
:10068000F0FFFFFFFFFFFFFFFFFFFFFFFFF0FFFF98
:10069000FFFFFFFFFFFFFFFFFFFFF0FFFFFFFFFF79
:1006A000FFFFFFC0FFFFFFF0FFFFFFFFFFFFFFFFA8
:1006B000807FFFFFF0FFFFFFFFFFFFFFFF807FFF57
:1006C000FFF0FFFFFFFFFFFFFFFF807FFFFFF0FF57
:1006D000FFFFFFFFFFFFFF007FFFFFF0FFFFFFFFB8
:1006E000FFFFFFFF007FFFFFF0FFFFFFFFFFFFFFA8
:1006F000FF007FFFFFF0FFFFFFFFFFFFFFFF007F17
:10070000FFFFF0FFFFFFC1FFFFFFFF007FFFFFF0D4
:10071000FFFFFF80FFFFFFFF007FFFFFF0FFFFFFF6
:10072000807FFFFFFF007FFFFFF0FFFFFF807FFF65
:10073000FFFF007FFFFFF0FFFFFF807FFFFFFF0055
:100740007FFFFFF0FFFFFF803FFFFFFE007FFFFF07
:10075000F0FFFFFF803FFFFFFE007FFFFFF0FFFF86
:10076000FF803FFFFFFE007FFFFFF0FFFFFF803FA6
:10077000FFFFFE007FFFFFF0FFFFFF803FFFFFFE58
:10078000007FFFFFF0FFFFFFC01FFFFFFE00FFFF26
:10079000FFF0FFFFFFC01FFFFFFE00FFFFFFF0FFA6
:1007A000FFFFC01FFFFFFE00FFFFFFF0FFFFFFC0C6
:1007B0001FFFFFFE00FFFFFFF0FFFFFFC01FFFFF57
:1007C000FC00FFFFFFF0FFFFFFC00FFFFFFC00FF7B
:1007D000FFFFF0FFFFFFE00FFFFFFC00FFFFFFF058
:1007E000FFFFFFE00FFFFFFC00FFFFFFF0FFFFFF39
:1007F000E00FFFFFFC00FFFFFFF0FFFFFFE00FFF38
:10080000F03C00FFFFFFF0FFFFFFE007FFE01C00F0
:10081000FFFFFFF0FFFFFFF007FFE01C00FFFFFFFF
:10082000F0FFFFFFF007E3E01C00FFFFFFF0FFFF1A
:10083000FFF00780E00800FFFFFFF0FFFFFFF0037D
:1008400000E00C00FFFFFFF0FFFFFFF00300600C73
:1008500000FFFFFFF0FFFFFFF00300600C00FFFF51
:10086000FFF0FFFFFFF80300600C00FFFFFFF0FF49
:10087000FFFFF80300600C00FFFFFFF0FFFFFFF831
:100880000300FF8C00FFFFFFF0FFFFFFF80301FFF5
:10089000FF00FFFFFFF0FFFFFFF80101803FF0FFC7
:1008A000FFFFF0FFFFFFF80181800078FFFFFFF0FE
:1008B000FFFFFFFC018180001C7FFFFFF0FFFFFFB7
:1008C000FC018180000C7FFFFFF0FFFFFFFC018136
:1008D0008000067FFFFFF0FFFFFFFC0180C00007E4
:1008E0007FFFFFF0FFFFFFFC0180E00003FFFFFF41
:1008F000F0FFFFFFFC0180700001FFFFFFF0FFFF32
:10090000FFFC00C0380000FFFFFFF0FFFFFFFC000E
:10091000C01F0000FFFFFFF0FFFFFFFC00C01FE053
:10092000007FFFFFF0FFFFFFFC00C031F8003FFF3A
:10093000FFF0FFFFFFFC00E03018001FFFFFF0FF9B
:10094000FFFFFE0070E018001FFFFFF0FFFFFFFE3B
:10095000003FC038001FFFFFF0FFFFFFFE000F0049
:10096000F0001FFFFFF0FFFFFFFE000001C0001FAF
:10097000FFFFF0FFFFFFFE00000380001FFFFFF0FE
:10098000FFFFFFFE00000700001FFFFFF0FFFFFF5B
:10099000FF00000600003FFFFFF0FFFFFFFF000029
:1009A0000C00003FFFFFF0FFFFFFFF00000400000E
:1009B0003FFFFFF0FFFFFFFF00000000007FFFFF91
:1009C000F0FFFFFFFF80000000007FFFFFF0FFFF50
:1009D000FFFF8000000000FFFFFFF0FFFFFFFF8030
:1009E00000000000FFFFFFF0FFFFFFFFC00000005E
:1009F00001FFFFFFF0FFFFFFFFE000000001FFFF2E
:100A0000FFF0FFFFFFFFE000000003FFFFFFF0FF2C
:100A1000FFFFFFF000000003FFFFFFF0FFFFFFFFFD
:100A2000F800000007FFFFFFF0FFFFFFFFFC0000E2
:100A3000000FFFFFFFF0FFFFFFFFFE0000001FFFA2
:100A4000FFFFF0FFFFFFFFFF0000003FFFFFFFF091
:100A5000FFFFFFFFFFC000007FFFFFFFF0FFFFFF72
:100A6000FFFFF00001FFFFFFFFF0FFFFFFFFFFFEB2
:100A7000000FFFFFFFFFF0FFFFFFFFFFFFFFFFFF84
:100A8000FFFFFFF0FFFFFFFFFFFFFFFFFFFFFFFF85
:100A9000F0FFFFFFFFFFFFFFFFFFFFFFFFF0FFFF84
:100AA000FFFFFFFFFFFFFFFFFFFFF0FFFFFFFFFF65
:100AB000FFFFFFFFFFFFFFF0FFFFFFFFFFFFFFFF55
:100AC000FFFFFFFFF0FFFFFFFFFFFFFFFFFFFFFF45
:100AD000FFF0FFFFFFFFFFFFFFFFFFFFFFFFF0FF44
:100AE000FFFFFFFFFFFFFFFFFFFFFFF0FFFFFFFF25
:100AF000FFFFFFFFFFFFFFFFF0FFFFFFFFFFFFFF15
:100B0000FFFFFFFFFFF0FFFFFFFFFFFFFFFFFFFF04
:100B1000FFFFF001020408102040800102040810C9
:100B20002001020408102000000000250028002BEE
:100B30000004040404040404040202020202020386
:100B4000030303030300E41B572311241FBECFEF4D
:100B5000D8E0DEBFCDBF25E0AAE8B2E001C01D921B
:100B6000A531B207E1F712E0A0E0B1E0E8E7FCE46C
:100B700002C005900D92AA38B107D9F715E0C4EA72
:100B8000D5E004C02197FE010E941824C33AD10782
:100B9000C9F70E94BC1C0C942F260C940000DC01A9
:100BA000ED91FC910190F081E02D0994AF92BF92FC
:100BB000CF92DF92EF92FF920F931F93CF93DF9329
:100BC0006C017B018B01040F151FEB015E01AE1858
:100BD000BF08C017D10759F06991D601ED91FC917A
:100BE0000190F081E02DC6010995892B79F7C501A7
:100BF000DF91CF911F910F91FF90EF90DF90CF90F9
:100C0000BF90AF900895FC01538D448D252F30E0A7
:100C1000842F90E0821B930B541710F0CF96089509
:100C200001970895FC01918D828D981761F0A28D36
:100C3000AE0FBF2FB11D5D968C91928D9F5F9F73FC
:100C4000928F90E008958FEF9FEF0895FC01918DB2
:100C5000828D981731F0828DE80FF11D858D90E01F
:100C600008958FEF9FEF0895FC01918D228D892FBC
:100C700090E0805C9F4F821B91098F7399270895A4
:100C800084E294E00E94340621E0892B09F420E0FC
:100C9000822F0895FC01A48DA80FB92FB11DA35A6E
:100CA000BF4F2C91848D90E001968F739927848F8C
:100CB000A689B7892C93A089B1898C9183708064AF
:100CC0008C93938D848D981306C00288F389E02D50
:100CD00080818F7D80830895EF92FF920F931F9301
:100CE000CF93DF93EC0181E0888F9B8D8C8D9813DF
:100CF0001AC0E889F989808185FF15C09FB7F894EB
:100D0000EE89FF896083E889F98980818370806436
:100D100080839FBF81E090E0DF91CF911F910F9181
:100D2000FF90EF900895F62E0B8D10E00F5F1F4F90
:100D30000F731127E02E8C8D8E110CC00FB607FC9F
:100D4000FACFE889F989808185FFF5CFCE010E942D
:100D50004A06F1CFEB8DEC0FFD2FF11DE35AFF4F4B
:100D6000F0829FB7F8940B8FEA89FB8980818062BB
:100D7000CFCFCF93DF93EC01888D8823B9F0AA8978
:100D8000BB89E889F9898C9185FD03C0808186FD46
:100D90000DC00FB607FCF7CF8C9185FFF2CF808195
:100DA00085FFEDCFCE010E944A06E9CFDF91CF91BA
:100DB0000895833081F028F4813099F08230A9F0D1
:100DC00008958730A9F08830C9F08430B1F480915B
:100DD00080008F7D03C0809180008F77809380009A
:100DE000089584B58F7784BD089584B58F7DFBCF3A
:100DF0008091B0008F778093B00008958091B0000B
:100E00008F7DF9CFCF93DF93282F30E0F901E551A3
:100E1000FA4F8491F901ED5EF44FD491F901EF5C42
:100E2000F44FC491CC23A1F081110E94D906EC2F7C
:100E3000F0E0EE0FFF1FEF51FA4FA591B491EC9146
:100E4000ED2381E090E009F480E0DF91CF910895F7
:100E500080E090E0FACF1F93CF93DF93282F30E00C
:100E6000F901E551FA4F8491F901ED5EF44FD49107
:100E7000F901EF5CF44FC491CC23A9F0162F811136
:100E80000E94D906EC2FF0E0EE0FFF1FE95DF44F52
:100E9000A591B4918FB7F894EC91111108C0D09539
:100EA000DE23DC938FBFDF91CF911F910895DE2B5E
:100EB000F8CFCF93DF9390E0FC01ED5EF44F2491E7
:100EC0008F5C944FFC0184918823C9F090E0880FD7
:100ED000991FFC01E952FA4FA591B491FC01E95D1B
:100EE000F44FC591D49161110DC09FB7F8948C91C6
:100EF000209582238C938881282328839FBFDF91AC
:100F0000CF910895623051F49FB7F8943C91822FAD
:100F1000809583238C93E8812E2BEFCF8FB7F894A5
:100F2000EC912E2B2C938FBFEACF8E3008F08E5091
:100F30008770806480937C0080917A0080648093C5
:100F40007A0080917A0086FDFCCF809178009091A4
:100F5000790008953FB7F8948091DD039091DE0306
:100F6000A091DF03B091E00326B5A89B05C02F3FF9
:100F700019F00196A11DB11D3FBFBA2FA92F982FBF
:100F80008827BC01CD01620F711D811D911D42E0BA
:100F9000660F771F881F991F4A95D1F708958F9282
:100FA0009F92AF92BF92CF92DF92EF92FF924B014E
:100FB0005C010E94AA076B017C010E94AA076C19C0
:100FC0007D098E099F09683E734081059105A8F34C
:100FD00021E0821A9108A108B10888EEC80E83E0CA
:100FE000D81EE11CF11C81149104A104B10429F75D
:100FF000FF90EF90DF90CF90BF90AF909F908F9039
:10100000089520918D03260F3327331F2132310598
:10101000ECF42091B103FC0190E080E0243069F011
:1010200082E00895A0918D032191AC0143595C4F5A
:10103000A40FB52FB11D2C930196861798F38091BC
:101040008D03680F60938D0380E0089581E008951B
:1010500008958FEF9FEF08958FEF9FEF0895809190
:10106000660390E09195819591090895CF93DF9360
:10107000CB01EA01642F0E940108CE01DF91CF91DC
:101080000895CF93DF931F92CDB7DEB7698361E0F8
:10109000CE0101960E94010881E090E00F90DF915F
:1010A000CF910895FC01A5A1B6A18C9192A58923A9
:1010B0008C93A5A1B6A18C9191A5892B8C930895B1
:1010C0000F931F93CF93DF93EC018B018DA98111B7
:1010D0000DC01EBD0DB407FEFDCF0EBD0DB407FE45
:1010E000FDCFDF91CF911F910F9108958130E9F4E9
:1010F00080E1E9A1FAA1908117FF14C02DA1922BE4
:101100009083EBA1FCA190812FA1922B9083EBA166
:10111000FCA1908128A592239083000F111F81507C
:1011200041F7DFCF2EA19223EBCFEF8DF8A11083F3
:10113000CE010E945208EF8DF8A10083CE01DF910D
:10114000CF911F910F910C945208FC0185A9811138
:1011500005C06EBD0DB407FEFDCF08958130E1F4EA
:1011600088E0A1A1B2A19C9167FF13C025A1922B99
:101170009C93A3A1B4A19C9127A1922B9C93660F51
:10118000A3A1B4A19C9120A592239C93815049F7DF
:10119000089526A19223ECCFA78DB0A16C93CF0127
:1011A0000C945208CF93DF93EC01ED8DFE8D80817E
:1011B0009CA989238083CE010E94A508ED8DFE8D18
:1011C00080819BA9892B8083DF91CF910895AF9275
:1011D000BF92CF92DF92EF92FF920F931F93CF9324
:1011E000DF93EC015B016A01215031097901E60EC0
:1011F000F71E01501109040F151F809106019091EF
:1012000007018617970739F4809104019091050131
:101210008E159F05A1F06AE2CE010E94D208B501A9
:10122000CE010E946008B701CE010E946008B09212
:101230000701A0920601F0920501E092040180915D
:101240000201909103018C159D0539F480910001F4
:101250009091010180179107A1F06BE2CE010E94ED
:10126000D208B601CE010E946008B801CE010E94EA
:101270006008D0920301C092020110930101009313
:1012800000016CE2CE01DF91CF911F910F91FF9091
:10129000EF90DF90CF90BF90AF900C94D208FC01FC
:1012A00085A9811104C091A182A19CBD8DBD089525
:1012B0001F93CF93DF93EC01162FE881F98102840D
:1012C000F385E02D0995112371F06DADCE010E94DB
:1012D000D208E881F9810688F789E02DCE01DF91F7
:1012E000CF911F9109946EADF1CFAF92BF92CF9283
:1012F000DF92EF92FF920F931F93CF93DF93EC0156
:1013000077FD38C088859985681779079CF557FD62
:1013100031C08A859B854817590764F569017A01B0
:101320005B01E881F9810284F385E02DCE01099506
:10133000E881F98102A4F3A5E02D01E010E021E0AD
:1013400030E0A701B501CE010995B601CE010E949A
:101350006008E881F9810688F789E02DCE01DF91E8
:10136000CF911F910F91FF90EF90DF90CF90BF90A2
:10137000AF900994DF91CF911F910F91FF90EF9063
:10138000DF90CF90BF90AF9008958F929F92AF92D1
:10139000BF92CF92DF92EF92FF920F931F93CF9362
:1013A000DF93EC0149015701E881F98102A4F3A51B
:1013B000E02D09959401D8010E94E9236B017C017D
:1013C000C114D104E104F10409F490C08DA9811184
:1013D00015C081E0C81AD108E108F1088FEFC816DE
:1013E000D806E806F80609F481C0BEBC0DB407FEB5
:1013F000FDCFAEBC0DB407FEFDCFEBCF813009F0C1
:1014000045C081E0C81AD108E108F1088FEFC8167D
:10141000D806E806F80609F469C09B2D88E0E9A122
:10142000FAA1208197FF2CC03DA1232B2083EBA1A3
:10143000FCA120813FA1232B2083EBA1FCA12081D3
:1014400038A523232083990F815049F79A2D88E0EE
:10145000E9A1FAA1208197FF16C03DA1232B20838B
:10146000EBA1FCA120813FA1232B2083EBA1FCA1B8
:10147000208138A523232083990F815049F7C1CFBC
:101480003EA12323D3CF3EA12323E9CFBA1016C018
:10149000CC0CDD1CEE1CFF1CEF8DF8A1B08281E0AE
:1014A000C81AD108E108F1088FEFC816D806E80677
:1014B000F806E1F0CE010E945208F1CF81E0C81A8F
:1014C000D108E108F1088FEFC816D806E806F8063B
:1014D00069F0EF8DF8A1B082CE010E945208EF8D25
:1014E000F8A1A082CE010E945208E8CFDF91CF91EF
:1014F0001F910F91FF90EF90DF90CF90BF90AF9032
:101500009F908F9008958F929F92AF92BF92CF92AB
:10151000DF92EF92FF920F931F93CF93DF935C01C3
:101520004B016A01E90177FD52C0DC0118968D91EB
:101530009C91681779070CF04AC0209709F447C0BE
:1015400037FF07C0C9010196C80ED91ED195C195B4
:10155000D109F50182859385C816D906C4F5A6017F
:101560004C0F5D1F9A012150310937FD30C0D7FE65
:1015700003C0EA01D12CC12C281739071CF0EC015B
:10158000CC19DD09D501ED91FC910284F385E02DA4
:10159000C501099578018E0121E030E0A601B40172
:1015A000C5010E94C509D501ED91FC910688F78916
:1015B000E02DC501DF91CF911F910F91FF90EF902A
:1015C000DF90CF90BF90AF909F908F900994DF9164
:1015D000CF911F910F91FF90EF90DF90CF90BF9030
:1015E000AF909F908F9008958F929F92AF92BF92ED
:1015F000CF92DF92EF92FF920F931F93CF93DF93DF
:101600005C016B014A01E90157FD52C0DC011A96E9
:101610008D919C91481759070CF04AC0209709F406
:1016200047C037FF07C0C9010196C80ED91ED19522
:10163000C195D109F50180859185C816D906C4F5F3
:10164000A6014C0F5D1F9A012150310937FD30C0B2
:10165000D7FE03C0EA01D12CC12C281739071CF092
:10166000EC01CC19DD09D501ED91FC910284F385E3
:10167000E02DC5010995780101E010E09E01A4016B
:10168000B601C5010E94C509D501ED91FC910688FE
:10169000F789E02DC501DF91CF911F910F91FF9048
:1016A000EF90DF90CF90BF90AF909F908F90099474
:1016B000DF91CF911F910F91FF90EF90DF90CF902E
:1016C000BF90AF909F908F9008958F929F92AF920E
:1016D000BF92CF92DF92EF92FF920F931F93CF931F
:1016E000DF934C016B015A01E901209709F46CC0AA
:1016F0000115110509F468C037FF07C0C90101963B
:10170000C80ED91ED195C195D109F401A085B18526
:10171000CA16DB060CF058C017FF07C0C8010196B7
:10172000A80EB91E119501951109F40182859385C2
:10173000A816B9060CF048C0F601EC0FFD1FAF016A
:101740004150510957FD40C0B501600F711F9B0109
:101750002150310937FD38C0D7FE03C0EF01D12C2D
:10176000C12CB7FE03C08B01B12CA12C4A175B071B
:101770001CF0ED01CC19DD09281739071CF08C018C
:101780000A191B09D401ED91FC910284F385E02D27
:10179000C40109959E01A501B601C4010E94C509B5
:1017A000D401ED91FC910688F789E02DC401DF9109
:1017B000CF911F910F91FF90EF90DF90CF90BF904E
:1017C000AF909F908F900994DF91CF911F910F91CF
:1017D000FF90EF90DF90CF90BF90AF909F908F9051
:1017E0000895EF92FF920F931F93CF93DF9377FDAE
:1017F00032C0DC011896ED91FC916E177F075CF505
:101800002115310541F137FF07C0F90131964E0F1F
:101810005F1F319521953109DC011A96ED91FC91FC
:101820004E175F07C4F4EA01C20FD31FDE01119700
:10183000B7FD11C057FF03C09E0150E040E0AE1756
:10184000BF071CF09F01241B350B7801890121E0A3
:1018500030E00E94C509DF91CF911F910F91FF9059
:10186000EF900895EF92FF920F931F93CF93DF9322
:1018700057FD31C0DC011A96ED91FC914E175F07C0
:1018800054F52115310539F137FF07C0F9013196BB
:101890006E0F7F1F319521953109DC011896ED916E
:1018A000FC916E177F07BCF4EB01C20FD31FDE0162
:1018B0001197B7FD10C077FF03C09E0170E060E094
:1018C000AE17BF071CF09F01261B370B780101E004
:1018D00010E00E94C509DF91CF911F910F91FF90F9
:1018E000EF9008958F929F92AF92BF92CF92DF9226
:1018F000EF92FF920F931F93CF93DF934701211530
:10190000310509F44BC00115110509F447C037FF33
:1019100007C0F90131966E0F7F1F3195219531096E
:10192000DC011896AD90BC906A157B05BCF517FFDD
:1019300007C0F80131964E0F5F1F119501951109EF
:10194000DC011A96ED91FC914E175F073CF56B0197
:10195000C20ED31EE6012197D7FD20C07A01E00E0A
:10196000F11ED7011197B7FD19C077FF03C096018B
:1019700070E060E057FF03C0870150E040E0CA1507
:10198000DB051CF09501261B370BAE17BF071CF0BB
:101990008F01041B150B74010E94C509DF91CF91C3
:1019A0001F910F91FF90EF90DF90CF90BF90AF907D
:1019B0009F908F900895EF92FF920F931F93CF9374
:1019C000DF93EC0177FD22C0888599856817790738
:1019D000ECF457FD1BC08A859B8548175907B4F462
:1019E0007901E881F98102A4F3A5E02D01E010E07E
:1019F00021E030E0CE010995B701CE01DF91CF9112
:101A00001F910F91FF90EF900C946008DF91CF91A0
:101A10001F910F91FF90EF900895CF93DF93EC010A
:101A20000E944F098FA987FD06C0EB8DFC8D808138
:101A30009AA989238083DF91CF9108950895AF9269
:101A4000BF92CF92DF92EF92FF920F931F93CF93AB
:101A5000DF93EC01E62E8A01A22E0E944F098FA986
:101A600087FD06C0EB8DFC8D80819AA98923808338
:101A7000ED8DFE8D80819CA9892380836E2DCE0102
:101A80000E94A508ED8DFE8D80819BA9892B808306
:101A9000D12CC12CB12CCA14DB04E4F48DA978013B
:101AA000823079F488A9882361F0F80161917191FD
:101AB0007F01CE010E946008FFEFCF1ADF0A870185
:101AC000EACFFFEFEF1AFF0AF8016491CE010E94FE
:101AD000A508F2CF8FA987FD06C0EB8DFC8D808114
:101AE00099A9892B8083DF91CF911F910F91FF904E
:101AF000EF90DF90CF90BF90AF900895611106C036
:101B000060E220E050E040E00C941F0D61E2F9CF6C
:101B10000F931F93CF93DF931F92CDB7DEB78C0146
:101B20006370DC0156966C935697623009F468C076
:101B3000633009F46AC0613009F456C088E48983CF
:101B400080E491E019969C938E93189780EF90E033
:101B50001B969C938E931A97C8010E944F09D80137
:101B6000D7968C91D79787FD09C05B96ED91FC9134
:101B70005C978081D2969C9189238083D8015D9661
:101B8000ED91FC915E978081D4969C91892380830E
:101B900066E3C8010E94A508D8015D96ED91FC910D
:101BA0005E978081D3969C91D397892B8083D5961D
:101BB0008C91823061F16981C8010E94A508D80129
:101BC000D7968C91D79787FD09C05B96ED91FC91D4
:101BD0005C978081D1969C91892B80830F90DF91B7
:101BE000CF911F910F91089588E2898380EF90E053
:101BF000F8019187808780E491E093878287ACCF5A
:101C000088E8898380E491E09DCF88EEEECFF801EB
:101C100080A9882381F269817A81C8010E946008C5
:101C2000CECFFC0187A987FD06C0A38DB48D9C9102
:101C300081A9892B8C9308950895FC016370668BAC
:101C40008481958126813781613039F0633029F0B4
:101C500091878087338722870895318720879387EC
:101C6000828708952F923F924F925F926F927F9258
:101C70008F929F92AF92BF92CF92DF92EF92FF929C
:101C80000F931F93CF93DF93CDB7DEB76A970FB64D
:101C9000F894DEBF0FBECDBF9A8F898F7A83698398
:101CA0004A01D22E18870F833701BC2CDC015996CC
:101CB0002D913C915A972115310509F015C11896BF
:101CC0008D919C911997681779070CF0D7C11A96D6
:101CD0008D919C91481759070CF0D0C14C2C512C78
:101CE000B6E0CB9E600D711D11247C876B871616A4
:101CF00017060CF0C3C1EA2DF0E0FA87E98793E0FC
:101D0000EE0FFF1F9A95E1F7F88BEF87CF01840F55
:101D1000951F181619060CF0B1C1A98DBA8D5896E9
:101D20008C91811104C0BFEABD1508F4D394A98D2C
:101D3000BA8DED91FC9111970284F385E02DCD01D0
:101D40000995B5E0DB9EC0011124E981FA81FC838D
:101D5000EB83312C212C9C0128593F4F388F2F8B3E
:101D60004A2D50E05E8B4D8BEF89F88DE20DF31D0F
:101D700044919E828D82D12CC12C69817A81620D21
:101D8000731D7A8B698B842F90E09C8B8B8BE98DF4
:101D9000FA8DA081B18140FF82C0F1E0BF126FC017
:101DA000AF126DC01C96ED91FC912F813885A40176
:101DB0004C0D5D1D69897A89898D9A8D0995EB890C
:101DC000FC89F595E7954E2F5FEFC51AD50A6D8111
:101DD0007E818D899E89680F791F7E836D8398E04F
:101DE000C916D10481F6AFEF2A1A3A0AEB81FC81B9
:101DF000E40DF51DFC83EB83F5E02F16310409F0AB
:101E0000B3CF2F81388526153705B9F0A98DBA8D46
:101E1000ED91FC91B1E0BB1257C0AB1255C0698186
:101E20007A816B5F7F4F0088F189E02D830128E084
:101E300030E0A401898D9A8D0995A98DBA8DED9117
:101E4000FC9111970688F789E02DCD016A960FB6AF
:101E5000F894DEBF0FBECDBFDF91CF911F910F91E0
:101E6000FF90EF90DF90CF90BF90AF909F908F90BA
:101E70007F906F905F904F903F902F9009941E96A7
:101E8000ED91FC91EF80F88409851A8592014D81CE
:101E90005E816B817C81898D9A8D099590CF2F8190
:101EA00038852615370509F48ACF31E0B31207C00B
:101EB000A31205C01C96ED91FC91930178CF1E965C
:101EC000ED91FC917301E0CF6B857C8564197509F8
:101ED0000684F785E02D73010F8518899201A4010E
:101EE000898D9A8D0995A9CFF901349694913297ED
:101EF00045915491D91AB7E0DB9E400D511D112434
:101F0000F901259134913C8B2B8BFA01259034906B
:101F1000FA013296749031963491398B32966490EE
:101F20003196449041E04C1518F04A1508F07FC0F6
:101F3000662D062C000C770B7C836B83842D042C80
:101F4000000C990B9E838D83A98DBA8DED91FC9128
:101F500011970284F385E02DCD010995512CD12CE8
:101F6000C12CEA2DF0E0FA87E9872B2D30E03C8781
:101F70002B87A401440D511D47FC5A95588F4F8B58
:101F800069817A81660D711D67FC7A957E876D8700
:101F90007989C71608F051CF2C2D30E04D815E8134
:101FA000420F531FA985BA854A9FC0014B9F900DD0
:101FB0005A9F900D1124FC01E80DF91DF88BEF8755
:101FC000852D612C4F89588D420F531F5E8B4D8B91
:101FD000671408F050C044244394480E877041F4BD
:101FE000C1010196EB89FC89E20DF31DD4901C011F
:101FF000D7FE19C0A98DBA8DED91FC91662D70E0C8
:10200000B1E0BB1219C0AB1217C02D853E85620F1F
:10201000731F0484F585E02D2F8138854D895E89F5
:10202000898D9A8D0995DD0C6394842DD1CF1E8204
:102030001D821C821B8288CF4B815C81640F751FBF
:10204000AB85BC856A9FC0016B9F900D7A9F900DF8
:10205000112469817A81680F791F0684F785E02D44
:10206000EF80F88409851A859D014F855889898DEF
:102070009A8D0995D8CF570CC3948ACF6A960FB61C
:10208000F894DEBF0FBECDBFDF91CF911F910F91AE
:10209000FF90EF90DF90CF90BF90AF909F908F9088
:1020A0007F906F905F904F903F902F9008958F9208
:1020B0009F92AF92CF92EF92FF920F931F93CF9385
:1020C000DF93EC01262F898D9A8D009709F051C07E
:1020D0006A30D1F41D861C868D8948E0849F90016A
:1020E00011248E859F85820F931F9F878E8781E0A5
:1020F00090E0DF91CF911F910F91FF90EF90CF90E3
:10210000AF909F908F9008956D3089F3CC88AD8803
:102110008F898823C1F08C859D8536E0C39E800D14
:10212000911D1124488559854817590764F44E8537
:102130005F851D861C8638E0A39EC0011124840F94
:10214000951F9F878E87EA88FB88088919894E85A5
:102150005F856C857D85CE010E94320E2C898C8531
:102160009D8546E0249F800D911D11249D878C87BD
:10217000BECF6A3069F41D861C86FC013896E49156
:102180002D898E859F85E29F800D911D1124ADCFF5
:102190006D3009F4ACCFFC0134963491631708F428
:1021A000A6CF3296E491E61708F4A1CFFC0132964F
:1021B00085909490462F431B342F47E0349F800C2A
:1021C000911C1124F401329634913196E491332319
:1021D000A9F1EE2399F1CC88F4013596E491AD880C
:1021E0004F89442301F10E2E000CFF0BE30FF11D6C
:1021F000CE9EA001CF9E500D11246C857D85460F8B
:10220000571F68857985641775076CF44E855F855F
:102210001D861C86FC013896E491AE9E400D511D32
:1022200011245F874E87EA88FB88088919894E85C3
:102230005F856C857D85CE010E94320EF401349657
:10224000E4912C898C859D85E29F800D911D112440
:102250008DCF6F927F928F929F92AF92BF92CF92CB
:10226000DF92EF92FF920F931F93CF93DF93EC01D6
:102270006B015A0139014801E881F9810284F38533
:10228000E02D0995E881F9810288F389E02D870125
:102290009301A501B601CE010995A501480D591D6F
:1022A00041505109E881F9810288F389E02D9301B9
:1022B000B601CE010995E881F9810088F189E02D08
:1022C0009401A501B601CE010995C60CD71CB60133
:1022D00061507109E881F9810088F189E02D94014C
:1022E000A501CE010995E881F9810688F789E02DDD
:1022F000CE01DF91CF911F910F91FF90EF90DF9072
:10230000CF90BF90AF909F908F907F906F900994E7
:102310006F927F928F929F92AF92BF92CF92DF92F5
:10232000EF92FF920F931F93CF93DF935C01EB012A
:102330006A01490138018701DC01ED91FC916217C6
:10234000730719F5641675062CF0962D872D3A0142
:10235000C92ED82E9601261937092F5F3F4F048CBE
:10236000F58DE02DA301BE01C5010995DF91CF9147
:102370001F910F91FF90EF90DF90CF90BF90AF90A3
:102380009F908F907F906F9008954615570591F418
:102390002617370724F0892D4B01C22FD82F9E0115
:1023A000281939092F5F3F4F068CF78DE02DA601C4
:1023B000B401DACF0284F385E02D0995D501ED91C2
:1023C000FC910488F589E02D83019401A601BE01EA
:1023D000C5010995D501ED91FC910688F789E02D9D
:1023E000C501DF91CF911F910F91FF90EF90DF908A
:1023F000CF90BF90AF909F908F907F906F900994F7
:10240000EF92FF920F931F93DC011A960D911C918E
:102410001B9718962D913C911997ED91FC9100A076
:10242000F1A1E02D7B0150E040E070E060E0099513
:102430001F910F91FF90EF9008954F925F926F92CE
:102440007F928F929F92AF92BF92CF92DF92EF9244
:10245000FF920F931F93CF93DF936C012B015A01CF
:1024600039014801DC01ED91FC910284F385E02DF6
:102470000995E201640C751CD601ED91FC91C6151D
:10248000D7055CF40088F189E02D87019401A5014E
:10249000BE01C60109952196EFCF0688F789E02D88
:1024A000C601DF91CF911F910F91FF90EF90DF90C8
:1024B000CF90BF90AF909F908F907F906F905F90E4
:1024C0004F9009948F929F92AF92BF92CF92DF92DA
:1024D000EF92FF920F931F93CF93DF93EC015B0179
:1024E0004A016901E881F9810284F385E02D0995AB
:1024F00095012C0D3D1D21503109E881F981048899
:10250000F589E02D78018401A401B501CE0109957A
:10251000E881F9810688F789E02DCE01DF91CF911E
:102520001F910F91FF90EF90DF90CF90BF90AF90F1
:102530009F908F9009948F929F92AF92BF92CF926B
:10254000DF92EF92FF920F931F93CF93DF93EC01F3
:102550005B014A0169017801E881F9810284F38510
:10256000E02D0995C80CD91C860101501109E8819C
:10257000F9810488F589E02D9501A401B501CE010A
:102580000995E881F9810688F789E02DCE01DF9170
:10259000CF911F910F91FF90EF90DF90CF90BF9060
:1025A000AF909F908F900994EF92FF920F931F939B
:1025B000DC01ED91FC9100A0F1A1E02D09951F91A6
:1025C0000F91FF90EF9008950F931F93DC01ED9111
:1025D000FC91068CF78DE02D09951F910F910895C0
:1025E0000F931F93DC01ED91FC91048CF58DE02D90
:1025F00009951F910F910895DC01ED91FC910084E4
:10260000F185E02D09942F923F924F925F926F9245
:102610007F928F929F92AF92BF92CF92DF92EF9272
:10262000FF920F931F93CF93DF9300D000D000D081
:10263000CDB7DEB73C016A013E832D83FC82EB827D
:102640005801A41AB50AB7FE03C0B194A194B10809
:102650008D809E80861A970A97FE03C0919481947C
:1026600091088A149B045CF0902F812F0D811E81AC
:102670009D838E839C2D8D2D6B01692F782F0C15DA
:102680001D055CF09D818E817E836D83692F782F7F
:10269000902F812F8601C92ED82E1601201A310ABB
:1026A0002B012D813E81421A530A57FE03C05194DB
:1026B00041945108710137FE03C03FEFE31AF30A5A
:1026C000F594E7948D819E81861797075CF5A1E0CC
:1026D000B0E0BA83A983C016D1064CF1D301ED91C5
:1026E000FC910484F585E02D2B813C81A8016D814E
:1026F0007E818A149B041CF04D815E81B801C30168
:102700000995E418F508F7FE0AC02D813E818981FC
:102710009A81280F391F3E832D83E20CF31C0F5F33
:102720001F4FD9CF2FEF3FEF3A832983D4CF26967F
:102730000FB6F894DEBF0FBECDBFDF91CF911F91D2
:102740000F91FF90EF90DF90CF90BF90AF909F9050
:102750008F907F906F905F904F903F902F90089553
:10276000089590E080E0089560E08EE00E942B07DD
:1027700065E070E080E090E00E94CF0760E083E0D9
:102780000E942B0760E086E00E942B0760E084E057
:102790000E942B0760E087E00E942B0761E082E047
:1027A0000E942B0761E085E00E942B0765E070E046
:1027B00080E090E00E94CF0760E082E00E942B075B
:1027C00060E085E00E942B0765E070E080E090E02B
:1027D0000E94CF0761E084E00E942B0761E087E060
:1027E0000E942B0765E070E080E090E00E94CF0738
:1027F00061E08EE00E942B0765E070E080E090E0F1
:102800000C94CF07FB0101900020E9F73197AF014D
:10281000461B570BDC01ED91FC910280F381E02D0A
:102820000994CF93DF93FC014481558160817181CC
:1028300084E294E00E94D605EC0160E571E084E258
:1028400094E00E9402148C0F9D1FDF91CF91089598
:102850004F925F926F927F928F929F92AF92BF92B0
:10286000CF92DF92EF92FF920F931F93CF93DF935C
:10287000CDB7DEB7A1970FB6F894DEBF0FBECDBFC0
:102880008C016B01770FEE08FF08F7FE44C06DE284
:102890000E94CF055C0122273327A9012C193D098D
:1028A0004E095F0919A2CE0181967C019AE0492E5A
:1028B000512C612C712CCA01B901A30192010E9413
:1028C000C723605DF70162937F0121153105410542
:1028D000510589F790E080E0309721F0BF01C801F1
:1028E0000E9402148A0D9B1DA1960FB6F894DEBFBC
:1028F0000FBECDBFDF91CF911F910F91FF90EF9051
:10290000DF90CF90BF90AF909F908F907F906F900F
:102910005F904F900895A701960119A2CE0181966C
:102920007C018AE0882E912CA12CB12CCA01B9011E
:10293000A50194010E94C723605DF70162937F01A6
:10294000211531054105510589F790E080E0309768
:1029500059F2BF01C8010E940214C6CF0F931F9302
:10296000CF93DF93EC010E9402148C0160E571E0CB
:10297000CE010E940214800F911FDF91CF911F9111
:102980000F9108950C9402142F923F924F925F92F0
:102990006F927F928F929F92AF92BF92CF92DF926F
:1029A000EF92FF920F931F93CF93DF931092100437
:1029B00010920F0410920E0410920D0410926503F1
:1029C000109264034AE0A42EB12C5AE0452E512CFB
:1029D000E0905803F0905903C701880F991F9C019C
:1029E0002B503C4F690120905A0330905B03F90152
:1029F00080819181281A390A00915403109155035E
:102A0000E801CC0FDD1FCF51DC4F60905603709072
:102A1000570388819981681A790A61E070E080E043
:102A200090E00E94CF0782E10E9495074C01F601D9
:102A30009183808381E10E9495076C01998388834B
:102A400061E070E080E090E00E94CF07820C931C70
:102A500090925B0380925A03C60CD71CD092570306
:102A6000C092560361E070E080E090E00E94CF07E2
:102A7000FFEFEF1AFF0AF0925903E09258030F5F3D
:102A80001F4F10935503009354032AE0E216F104FC
:102A900024F010925903109258030A30110524F0C3
:102AA000109255031092540361E070E080E090E0D2
:102AB0000E94CF07C401B2010E94B3238B0170931F
:102AC000630360936203C601B2010E94B323EB016A
:102AD00070935F0360935E03109361030093600340
:102AE00070935D0360935C0383E10E9402079093FF
:102AF00065038093640331E0A31AB10809F068CF3D
:102B0000013981E0180794F0C93EE3E0DE072CF4B8
:102B1000053F11405CF02A974CF481E0809310044B
:102B200063E571E084E294E00E94AE14809160035A
:102B300090916103853F9140BCF080915C0390913E
:102B40005D030A978F3D934078F01092100481E066
:102B500080930F0410920E0410920D0466E571E04C
:102B600084E294E00E94AE1480916003909161032E
:102B7000893E9340B4F080915C0390915D03853F62
:102B800091407CF01092100410920F0410920E04E9
:102B900081E080930D046BE571E084E294E00E9493
:102BA000AE1480916003909161030A97B4F4809110
:102BB0005C0390915D03853F91407CF0109210047E
:102BC00010920F0481E080930E0410920D0461E6D0
:102BD00071E084E294E00E94AE148091100460E001
:102BE00078EF811107C080910F04882309F46AC02F
:102BF00060EE7FEF88EC94E00E9400128091100458
:102C000081110CC080910F04811108C080910E04C5
:102C1000811104C080910D048823C1F11092230416
:102C2000609160037091610384E294E00E94281433
:102C300066E671E084E294E00E94C21460915C0355
:102C400070915D0384E294E00E94281466E671E0CE
:102C500084E294E00E94C21461E070E08091640319
:102C600090916503892B11F070E060E084E294E0BC
:102C70000E94281461E571E084E294E00E94C2148D
:102C80006AE070E080E090E00E94CF0780916403EA
:102C900090916503892B19F481E080932304DF91DF
:102CA000CF911F910F91FF90EF90DF90CF90BF9049
:102CB000AF909F908F907F906F905F904F903F90DC
:102CC0002F90089580910E046FE17CEF811192CFD7
:102CD00080910D046FEF77E081118CCF80916403B8
:102CE00090916503892B09F089CF70E060E088EC52
:102CF00094E00E94001264E670E080E090E00E94A0
:102D0000CF077CCF0E9400260F931F93CF93DF93B2
:102D1000EC0188819981009759F02A813B8126171F
:102D2000370730F081E0DF91CF911F910F91089527
:102D30008B016F5F7F4F0E944325009759F0998365
:102D400088831B830A832C813D81232B59F7FC0147
:102D50001082E8CF80E0E7CFEF92FF920F931F93AE
:102D6000CF93DF936115710541F480E0DF91CF913E
:102D70001F910F91FF90EF90089541155105B1F00B
:102D80007B01EC010C811D81040F151FB8010E940D
:102D90008416882351F3288139818C819D81B70164
:102DA000820F931F0E940E261D830C8381E0DECFCD
:102DB000CF93DF93EC0188819981009711F00E94F5
:102DC000BA24198218821D821C821B821A82DF910A
:102DD000CF910895EF92FF920F931F93CF93DF93BC
:102DE000EC017B01198218821B821A821D821C82CF
:102DF000FB0101900020E9F731978F01061B170BAB
:102E0000B8010E948416811109C0CE01DF91CF91D3
:102E10001F910F91FF90EF900C94D8161D830C8397
:102E2000B70188819981DF91CF911F910F91FF9018
:102E3000EF900C940E26FC0180819181009711F097
:102E40000C94BA240895CF92DF92EF92FF920F93E1
:102E50001F93CF93DF93EC016A017B01C114D1046E
:102E6000E104F10431F4C12C42E1D42E4AE7E42E0E
:102E7000F12C8FA987FD07C061E00E94590761E02E
:102E80008FA90E942B0761E088AD0E94590761E07D
:102E900088AD0E942B078DA98111A3C040E052E1AB
:102EA0006AE770E0C416D506E606F70640F47695A4
:102EB0006795579547958F5F8630A1F787E0982FE4
:102EC000906A969599A3809581708AA31BA21CA2F3
:102ED0001DA21EA21FB7F8948091D703811127C0AD
:102EE000EBE3FBE08491EDE1FBE09491E82FF0E06F
:102EF000EE0FFF1FE952FA4FA591B491EC91E9232F
:102F000021F461E08AE00E942B0761E08AE00E94E0
:102F100059078CB580618CBD8CB580648CBD61E037
:102F20008DE00E94590761E08BE00E945907809173
:102F3000D7038F5F8093D7031FBF8EA987FD21C062
:102F400061E00E94590761E08EA90E942B0764E6A8
:102F500070E080E090E00E94CF0760E08EA90E94C0
:102F60002B0764E670E080E090E00E94CF0761E00C
:102F70008EA90E942B0768EC70E080E090E00E9430
:102F8000CF078EA987FF0DC020E050E040E061E050
:102F9000CE010E941F0D66E970E080E090E00E9483
:102FA000CF0708E615E0C8010196F8016491662391
:102FB00009F463C00E5F1F4FFC01F490EF2CE894FE
:102FC000E7F82E2DA801CE010E941F0D0E0D111D38
:102FD000F7FEE9CF66E970E080E090E00E94CF075D
:102FE000E2CF01E31BE0F12C8130B9F461E08AA566
:102FF0000E94590760E08AA50E942B0761E08CA51A
:103000000E94590760E08CA50E942B078BA587FDC5
:1030100094CF60E00E94590790CFF8018491E82F87
:10302000F0E0EE0FFF1FE95DF44F859194912F8D35
:1030300038A12817390741F461E08F2D0E94590704
:1030400060E08F2D0E942B07F3940F5F1F4FF4E178
:10305000FF12E3CF61E08EA50E94590761E08EA5C3
:103060000E942B078FA587FD68CF61E00E9459075A
:1030700061E08FA50E942B0760CF80E491E09987E3
:10308000888780EF90E09B878A87DF91CF911F919F
:103090000F91FF90EF90DF90CF9008951F93CF9303
:1030A000DF9385ED8093BC008091690390916A0362
:1030B000A0916B03B0916C030796A11DB11D23E095
:1030C000B695A795979587952A95D1F72091BC003D
:1030D00024FD03C01092B10352C040916903509186
:1030E0006A0360916B0370916C03452B462B472B51
:1030F00069F30097A105B10541F02AE22A95F1F79D
:1031000000C00197A109B109E1CF80916803C1E036
:10311000C0936703882399F1D091B8001091BA0049
:103120008091BC008A7B8093BC0060E082E10E94B9
:103130002B0760E083E10E942B071092B103C0933C
:10314000B3031092B20361E082E10E942B0761E0B9
:1031500083E10E942B078091B9008E7F8093B90094
:103160008091B9008D7F8093B90088E48093B80086
:1031700085E48093BC001093BA00D093B800DF912F
:10318000CF911F9108957F928F929F92AF92BF929D
:10319000CF92DF92EF92FF920F931F93CF93DF9323
:1031A00000D000D000D0CDB7DEB785E0B82E95E0D6
:1031B000E92EF12C24E6C22ED12C992493943AE0E6
:1031C000A32E45E4842E50E2752E84E294E00E9402
:1031D0003406892B09F421C184E294E00E9412068E
:1031E000E091530391E09E0F909353030E2E000C39
:1031F000FF0BE557FD4F80838A3039F710928A0222
:1032000068E671E08BE892E00E941526892B31F088
:103210006EE671E084E294E00E94C21468E771E017
:103220008BE892E00E941526892B01F160E871E09D
:10323000CE0101960E94EA1640910F0550911005AB
:1032400060910B0570910C05CE0101960E94AC16A1
:10325000811104C0CE0101960E94D816CE010196BC
:103260000E941114CE0101960E941B1769E871E0BB
:103270008BE892E00E941526892B41F46EE871E0FC
:103280008BE892E00E941526892B51F162E971E0EA
:1032900084E294E00E94AE141092230465EE7FEA6B
:1032A00088EC94E00E9400121092DB041092DA0481
:1032B0001092D9041092D804B092DC04B092DD04CC
:1032C000F092D504E092D404D092D704C092D604F0
:1032D0006AE971E088EC94E00E94C2140E94B41381
:1032E00067EA71E08BE892E00E941526892BA9F12C
:1032F0001092230430E020E0890105571D4FF801AA
:103300003297808131979081973509F050C0823390
:1033100009F04DC0F801319780818A3379F4F801C2
:10332000808191818D32D9F180538A9D802D112425
:103330009D3289F19053890F809311042F5F3F4F85
:10334000283C3105CCF210925303EBE8F2E0719285
:1033500083E0E335F807D9F738CF6DEA71E08BE801
:1033600092E00E941526892B19F664EB71E08BE838
:1033700092E00E941526892B09F4BACF809123048C
:103380008111B8CF6AEB71E084E294E00E94AE1440
:1033900090922304AFCF6A2D0E94A523CDCF913305
:1033A00019F480921104CACF10921104C7CF83344C
:1033B00029F6F801319780818A3309F0BFCF70E098
:1033C00060E082EC94E00E948416811119C082ECC6
:1033D00094E00E94D81698012B583240F801819150
:1033E0008F018A3009F4AACF89831A8241E050E024
:1033F000BE016F5F7F4F82EC94E00E94AC16EBCF72
:103400001092C7041092C60462E571E08091C20474
:103410009091C3040E940E26DECF26960FB6F89434
:10342000DEBF0FBECDBFDF91CF911F910F91FF90F7
:10343000EF90DF90CF90BF90AF909F908F907F9054
:1034400008950E94400681110C94C31808951F929C
:103450000F920FB60F9211242F933F934F935F93C8
:103460006F937F938F939F93AF93BF93EF93FF934C
:1034700084E294E00E944A06FF91EF91BF91AF91E0
:103480009F918F917F916F915F914F913F912F917C
:103490000F900FBE0F901F9018951F920F920FB6AE
:1034A0000F9211242F938F939F93EF93FF93E091AB
:1034B0003404F09135048081E0913A04F0913B04AA
:1034C00082FD1BC0908180913D048F5F8F7320919E
:1034D0003E04821741F0E0913D04F0E0EC5DFB4FCB
:1034E000958F80933D04FF91EF919F918F912F9144
:1034F0000F900FBE0F901F9018958081F4CF1F92F0
:103500000F920FB60F9211242F933F938F939F9397
:10351000AF93BF938091D9039091DA03A091DB031D
:10352000B091DC033091D80323E0230F2D3758F5F9
:103530000196A11DB11D2093D8038093D9039093C8
:10354000DA03A093DB03B093DC038091DD03909159
:10355000DE03A091DF03B091E0030196A11DB11D30
:103560008093DD039093DE03A093DF03B093E00329
:10357000BF91AF919F918F913F912F910F900FBE6F
:103580000F901F90189526E8230F0296A11DB11DDC
:10359000D2CF1F920F920FB60F9211242F933F9309
:1035A0004F935F936F937F938F939F93AF93BF934B
:1035B000EF93FF938091B900887F803609F44AC069
:1035C000F0F5883209F4A5C018F5803109F499C0E6
:1035D000B8F4882309F4F5C0883009F492C0FF914B
:1035E000EF91BF91AF919F918F917F916F915F917B
:1035F0004F913F912F910F900FBE0F901F901895F4
:10360000883109F486C0803251F78093B00314C02A
:10361000803409F49BC040F48033B9F38833F9F661
:103620008093B00385ECAEC0803509F483C0883543
:1036300009F494C0883499F60E944E18D0CF883986
:1036400009F48AC038F5883729F050F4883611F02B
:10365000803729F683E08093B1031092AF0355C001
:10366000883809F479C0803919F0803809F0B7CF6B
:103670008091AF03803208F06FC0E091AF0381E02A
:103680008E0F8093AF038091BB00F0E0E157FC4FB9
:1036900080833BC0803B39F0D0F4803A09F477C096
:1036A000883A09F09CCF84E08093B10310928E0396
:1036B00010928D03F0E0E0E0099580918D03811177
:1036C0000FC081E080938D0310926D0309C0803C90
:1036D00009F4A8CF883C09F4A5CF883B09F07FCF37
:1036E000E0918E0381E08E0F80938E03F0E0E3592A
:1036F000FC4F80818093BB0090918E0380918D035D
:1037000029C08091D6038093BB0085EC8093BC00D8
:1037100066CF9091D5038091D403981758F5E09126
:10372000D50381E08E0F8093D503F0E0EC54FC4F7D
:103730008081E9CFE091D50381E08E0F8093D5039E
:103740008091BB00F0E0EC54FC4F80839091D50356
:103750008091D4039817C8F285E8D8CFE091D503BB
:1037600081E08E0F8093D5038091BB00F0E0EC5494
:10377000FC4F80838091B30381115ECF81E0809301
:10378000B20384EA8093BC001092B10328CF85EC89
:103790008093BC001092B1038091AF03803230F46B
:1037A000E091AF03F0E0E157FC4F10826091AF036E
:1037B00070E08FE893E0F0E0E0E009951092AF034D
:1037C0000ECF1092B00338CFE4E2F4E013821282FD
:1037D00088EE93E0A0E0B0E084839583A683B7836E
:1037E00082E191E09183808385EC90E095878487E6
:1037F00084EC90E09787868780EC90E0918B808BBB
:1038000081EC90E0938B828B82EC90E0958B848BA3
:1038100086EC90E0978B868B118E128E138E148E11
:1038200063EC71E08BE095E00E94EA16A8ECB4E04E
:1038300013961C921E92129720E431E015963C9349
:103840002E93149780EF90E017969C938E93169783
:1038500019963C932E9318971B969C938E931A97C8
:1038600056961C9256971D961C921E921C971F9658
:103870001C921E921E9781E055968C9355975496F4
:103880008C9354972FEF3FEF53963C932E93529780
:1038900051963C932E93509757968C9357975896E2
:1038A0001C9258975A961C921E925997D5961C9224
:1038B000D5978FEFD6968C93D6978AE0D7968C9330
:1038C000D79789E0D8968C93D897DA961C921E9257
:1038D000D997DC961C921E92DB97DD961C92DD97A1
:1038E000DE961C92DE971092070510920805109242
:1038F000090510920A0581EC94E090969C938E93B2
:103900005F97EAE3FBE0E491F0E0EE0FFF1FE95D73
:10391000F44F859194915E969C938E935D97ECE124
:10392000FBE08491D3968C93D397EBE3FBE0E49197
:10393000F0E0EE0FFF1FE95DF44F259134915C96A6
:103940003C932E935B97EDE1FBE0E491D196EC93F1
:10395000D197E095D296EC93D297E82FE095D49644
:10396000EC93D49784E291E08D939C9362E571E0AF
:1039700082EC94E00C94EA16CF93DF9300D000D051
:1039800000D0CDB7DEB7789484B5826084BD84B5AD
:10399000816084BD85B5826085BD85B5816085BD4A
:1039A00080916E00816080936E0010928100809102
:1039B000810082608093810080918100816080938A
:1039C0008100809180008160809380008091B100AF
:1039D00084608093B1008091B00081608093B000DA
:1039E00080917A00846080937A0080917A0082606E
:1039F00080937A0080917A00816080937A00809130
:103A00007A00806880937A001092C10061E082E0C1
:103A10000E94590761E083E00E94590761E084E059
:103A20000E94590761E085E00E94590761E086E045
:103A30000E94590761E087E00E94590761E08EE02B
:103A40000E94590761E080E10E94590761E088E027
:103A50000E94590761E08AE00E94590761E089E00D
:103A60000E94590761E088E00E942B0762E08FE026
:103A70000E94590761E08EE00E942B0762E083E11B
:103A80000E94590760E082E10E94590760E081E1ED
:103A90000E945907E5EFF3E0A1EEB3E089E094E07E
:103AA000119211921D921D928E179F07C9F7E091F6
:103AB0003404F091350482E08083E0913004F09189
:103AC00031041082E0913204F09133048FEC808352
:103AD00010923C04E0913804F091390486E0808330
:103AE000E0913604F0913704808180618083E09119
:103AF0003604F0913704808188608083E091360439
:103B0000F0913704808180688083E0913604F091E1
:103B1000370480818F7D80836EE671E084E294E0DB
:103B20000E94C21460E871E0CE0101960E94EA167C
:103B300040910F055091100560910B0570910C0597
:103B4000CE0101960E94AC16811104C0CE010196EF
:103B50000E94D816CE0101960E941114CE01019642
:103B60000E941B1740E050E0BA0188EC94E00E94EC
:103B7000231760E088EC94E00E94880D61E088ECF7
:103B800094E00E947E0D15E01093DC041093DD0498
:103B900080EE9FEF9093DB048093DA049093D90436
:103BA0008093D8041092D5041092D4046FE0E62ECE
:103BB000F12CF092D704E092D60467EC71E088EC27
:103BC00094E00E94AE1410920C041092110444E090
:103BD00050E060ED71E082EC94E00E94AC1661E090
:103BE00080E10E942B0768EE73E080E090E00E9485
:103BF000CF0760E080E10E942B070E94B41360EEC3
:103C00007FEF88EC94E00E9400121093DC04109384
:103C1000DD041092DB041092DA041092D9041092A1
:103C2000D8041092D5041092D404F092D704E092F4
:103C3000D60465ED71E088EC94E00E94AE1460E07B
:103C400088EC94E00E947E0D88EC94E00E940D0DBB
:103C5000D12CC12CB12C76E4E72EF12C10E000E041
:103C6000C80187709927BB0C892B59F4F80153E0E0
:103C7000F595E7955A95E1F7EC0DFD1DE150FA4FEA
:103C8000B490B7FE0AC02FEF3FEFA701B801625909
:103C90007F4F88EC94E00E94DB0C0F5F1F4F0436CF
:103CA0001105F1F62FEFE21AF20A8DE0C80ED11CD1
:103CB0009AEAE916F10491F688EC94E00E94110E5C
:103CC00068EE73E080E090E00E94CF0761E088EC4E
:103CD00094E00E947E0D68EE73E080E090E00E9428
:103CE000CF0781E0809323040E94C41480912304B1
:103CF000882309F4D4C46FEF77E088EC94E00E9445
:103D000000121092DB041092DA041092D90410927F
:103D1000D80485E08093DC048093DD041092D50400
:103D20001092D4048FE090E09093D7048093D6044F
:103D300060EE71E088EC94E00E94C21484E080930D
:103D4000DC048093DD041092D5041092D4048CE33B
:103D500090E09093D7048093D6041092220410929E
:103D600021041092200410921F0410921E0410923D
:103D70001D0410921C0410921B0410921A0410923D
:103D8000190410921804109217041092160410923D
:103D90001504109214041092130410921204D12CE2
:103DA000C12CAA24A394B12C10E000E04FE1442ED2
:103DB0004CEF542E60E571E084E294E00E9402141E
:103DC00060EE71E084E294E00E94C21401151105D6
:103DD00009F48BC00930110509F48DC0B80184E2E3
:103DE00094E00E9428145092DB044092DA0450922E
:103DF000D9044092D804D092D504C092D4048CE364
:103E000090E09093D7048093D6040115110509F42E
:103E100074C00930110509F476C0B80188EC94E04B
:103E20000E94281460E08EE00E942B0765E070E09D
:103E300080E090E00E94CF0760E086E00E942B07C0
:103E400060E087E00E942B0761E085E00E942B077D
:103E500065E070E080E090E00E94CF0760E085E0E0
:103E60000E942B0765E070E080E090E00E94CF07A1
:103E700061E087E00E942B0765E070E080E090E061
:103E80000E94CF0761E08EE00E942B0765E070E0A2
:103E900080E090E00E94CF0761E086E00E942B075F
:103EA00060E087E00E942B07F12CE12C61E0EA142E
:103EB000FB045CF585E00E942B0761E070E080E088
:103EC00090E00E94CF0760E085E00E942B0761E050
:103ED00070E080E090E00E94CF0760E086E00E9402
:103EE0002B079FEFE91AF90AE1CF61E484E294E03D
:103EF0000E94CF0578CF62E4F9CF61E488EC94E0CA
:103F00000E94CF058FCF62E4F9CF87E00E942B0794
:103F1000109211040E94C41480911004811113C2E4
:103F200080910F0481110FC280910E0481110BC288
:103F300080910D04811107C2EE24E394F12C212C11
:103F400094E0392E20EE622E77247A9460E08EE0A1
:103F50000E942B0765E070E080E090E00E94CF07B0
:103F600060E083E00E942B0760E084E00E942B0762
:103F700061E082E00E942B0765E070E080E090E065
:103F80000E94CF0760E082E00E942B0765E070E0AE
:103F900080E090E00E94CF0761E084E00E942B0760
:103FA00065E070E080E090E00E94CF0761E08EE085
:103FB0000E942B0765E070E080E090E00E94CF0750
:103FC00061E083E00E942B0760E084E00E942B0701
:103FD000912C812C61E08E149F04DCF482E00E941D
:103FE0002B0761E070E080E090E00E94CF0760E086
:103FF00082E00E942B0761E070E080E090E00E9488
:10400000CF0760E083E00E942B072FEF821A920A0D
:10401000E1CF84E00E942B070E94C4148091100419
:10402000811169C180910F04811165C180910E04D5
:10403000811161C180910D0481115DC18FE00E94E9
:10404000020721E0009709F420E020930C040130DE
:10405000110509F068C0970121503109213031055F
:1040600009F053C0009709F0CAC0109322040093CE
:1040700021046AEE71E084E294E00E94C21460912F
:1040800021047091220484E294E00E9428140430F8
:10409000110509F068C095E0E916F104C1F48091BA
:1040A0000C04811114C088E090E090931C0480936C
:1040B0001B046FEF71E084E294E00E94C2146091EF
:1040C0001B0470911C0484E294E00E9428140730C1
:1040D000110509F068C098E0E916F10409F0D3C0B1
:1040E00080910C048111CFC080E490E0909316047D
:1040F0008093150464E172E084E294E00E94C214AB
:104100006091150470911604BAC02330310509F08E
:10411000BECF892B09F0BBCF80E091E090932204C1
:1041200080932104A6CF0230110509F068C09701E1
:10413000215031092230310509F053C0892B09F093
:10414000A6CF1093200400931F0461EF71E084E276
:1041500094E00E94C21460911F047091200484E2D4
:1041600094E00E9428140530110509F06AC096E019
:10417000E916F104C1F480910C04811114C080E1AE
:1041800090E090931A048093190466E072E084E250
:1041900094E00E94C2146091190470911A0484E2A0
:1041A00094E00E9428140830110509F06CC099E0D1
:1041B000E916F10409F067C080910C04811163C015
:1041C00080E890E090931404809313046BE172E014
:1041D00084E294E00E94C21460911304709114046C
:1041E0004EC02630310509F0BECF892B09F0BBCF78
:1041F00080E092E09093200480931F04A6CF0330C8
:10420000110509F044CF97012150310923303105C0
:1042100009F04CC0892B09F0A6CF84E090E0909380
:104220001E0480931D0468EF71E084E294E00E9414
:10423000C21460911D0470911E0484E294E00E94F7
:1042400028140630110509F042CF80910C04970123
:10425000215031092630310599F58111A4CF80E232
:1042600090E090931804809317046DE072E084E26C
:1042700094E00E94C214609117047091180484E2C3
:1042800094E00E9428147092DB046092DA04709229
:10429000D9046092D80480910C04811133C1C70104
:1042A0000197B1F481E48093110418C021303105E5
:1042B00041F6892B31F630921E0420921D04B3CFB3
:1042C0002230310501F78111DECF88EE97E0C9CFAA
:1042D000099709F014C192E490931104809112049B
:1042E0008F5F809312048FEFE81AF80A9BE0E916BB
:1042F000F10409F02BCED092D504C092D40484E608
:1043000090E09093D7048093D6046091110488ECD8
:1043100094E00E94571062E272E084E294E00E940E
:10432000C2146091110484E294E00E94CF050F5FF3
:104330001F4F2FEFA21AB20A8EE1C80ED11C0A300D
:10434000110509F037CD809121049091220420912C
:104350001F0430912004820F931F20911D0430917F
:104360001E04820F931F20911B0430911C04820FA6
:10437000931F2091190430911A04820F931F2091EA
:10438000170430911804820F931F20911504309167
:104390001604820F931F2091130430911404820F8E
:1043A000931F90930B0480930A041092DB041092E5
:1043B000DA041092D9041092D80484E08093DC04CB
:1043C0008093DD041092D5041092D40486E990E025
:1043D0009093D7048093D60468E272E088EC94E06E
:1043E0000E94C21460910A0470910B0488EC94E05E
:1043F0000E9428146CE272E088EC94E00E94C214DF
:1044000060911204062E000C770B88EC94E00E9459
:10441000281460E571E084E294E00E94021468E2EE
:1044200072E084E294E00E94C21460910A047091E8
:104430000B0484E294E00E9428146CE272E084E2AF
:1044400094E00E94C21460911204062E000C770BB7
:1044500084E294E00E94281460E571E084E294E034
:104460000E94021483E08093DC048093DD041092A8
:10447000D5041092D40488EC90E09093D7048093F4
:10448000D60480910A0490910B04811521E09207D3
:1044900009F040C08FE19CEF9093DB048093DA0435
:1044A0009093D9048093D80461E372E088EC94E09F
:1044B0000E94C21461E372E084E294E00E94AE14B0
:1044C000109209048091090484310CF0C9C00E9443
:1044D000C414809110048111C3C080910F04811114
:1044E000BFC080910E048111BBC080910D04811169
:1044F000B7C0809109048F5F80930904E3CF8FE2F6
:104500008E0DD1CE809111048111EDCE28E520933E
:104510001104E9CE803C2BE09207A9F58FE19CEFD6
:104520009093DB048093DA049093D9048093D804A9
:1045300063E472E088EC94E00E94C21463E472E0E9
:1045400084E294E00E94AE14109209048091090460
:1045500084310CF085C00E94C41480911004811134
:104560007FC080910F0481117BC080910E04811166
:1045700077C080910D04811173C0809109048F5F11
:1045800080930904E3CF803C994059F561E572E0DE
:1045900088EC94E00E94C21461E572E084E294E049
:1045A0000E94AE14109209048091090484310CF029
:1045B00057C00E94C41480911004811151C0809191
:1045C0000F0481114DC080910E04811149C080916A
:1045D0000D04811145C0809109048F5F8093090407
:1045E000E3CF82E08093DC048093DD046CE572E02D
:1045F00088EC94E00E94C2141092D5041092D40466
:1046000087ED90E09093D7048093D6046CE772E036
:1046100088EC94E00E94C2146CE672E084E294E0BC
:104620000E94AE1410920904809109048E31C4F4E2
:104630000E94C41480911004811112C080910F0453
:1046400081110EC080910E0481110AC080910D0469
:10465000811106C0809109048F5F80930904E4CF23
:1046600010920904809109048F300CF03FCB0E9416
:10467000C41480911004811139CB80910F048111F1
:1046800035CB80910E04811131CB80910D048111C5
:104690002DCB809109048F5F80930904E3CF0E94A2
:1046A0004006882309F420CB0E94C3181DCB82EC5E
:1046B00094E00E941B178BE095E00C941B172F923F
:1046C0003F924F925F926F927F928F929F92AF92A2
:1046D000BF92CF92DF92EF92FF920F931F93CF93EF
:1046E000DF93CDB7DEB7CA1BDB0B0FB6F894DEBF86
:1046F0000FBECDBF09942A88398848885F846E84AC
:104700007D848C849B84AA84B984C884DF80EE80F5
:10471000FD800C811B81AA81B981CE0FD11D0FB6FE
:10472000F894DEBF0FBECDBFED010895A29FB0018A
:10473000B39FC001A39F700D811D1124911DB29FD5
:10474000700D811D1124911D089587FB082E0626EA
:1047500087FD819567FD61950E94F8230EF4919580
:1047600007FC8195089597FB072E16F4009407D057
:1047700077FD09D00E94042407FC05D03EF49095F3
:1047800081959F4F0895709561957F4F0895A1E29F
:104790001A2EAA1BBB1BFD010DC0AA1FBB1FEE1FBB
:1047A000FF1FA217B307E407F50720F0A21BB30B06
:1047B000E40BF50B661F771F881F991F1A9469F782
:1047C00060957095809590959B01AC01BD01CF01DE
:1047D00008950E949623332312F48A1B9B0B0C949A
:1047E000F3230E949623B7FF0895821B930B08952D
:1047F000991B79E004C0991F961708F0961B881F33
:104800007A95C9F780950895AA1BBB1B51E107C093
:10481000AA1FBB1FA617B70710F0A61BB70B881F50
:10482000991F5A95A9F780959095BC01CD010895DF
:10483000EE0FFF1F0590F491E02D09940F931F9345
:10484000CF93DF938230910510F482E090E0E09105
:104850001305F091140530E020E0B0E0A0E03097BF
:1048600099F42115310509F44AC0281B390B24306D
:104870003105D8F58A819B816115710589F1FB01AC
:1048800093838283FE0111C0408151810281138193
:1048900048175907E0F04817590799F4109761F045
:1048A00012960C93129713961C933296CF01DF91B8
:1048B000CF911F910F910895009313051093140544
:1048C000F4CF2115310551F04217530738F0A901F3
:1048D000DB019A01BD01DF01F801C1CFEF01F9CF82
:1048E0009093140580931305CDCFFE01E20FF31FC3
:1048F000819391932250310939832883D7CF209116
:10490000110530911205232B41F420910A013091B9
:104910000B0130931205209311052091080130916D
:1049200009012115310541F42DB73EB740910C0125
:1049300050910D01241B350BE0911105F0911205EA
:10494000E217F307A0F42E1B3F0B2817390778F066
:10495000AC014E5F5F4F2417350748F04E0F5F1FC5
:104960005093120540931105819391939FCFF0E0EE
:10497000E0E09CCFCF93DF930097E9F0FC01329702
:1049800013821282A0911305B0911405ED0130E05D
:1049900020E01097A1F420813181820F931F209194
:1049A0001105309112052817390709F061C0F093FD
:1049B0001205E0931105DF91CF910895EA01CE171A
:1049C000DF07E8F54A815B819E0141155105B1F78A
:1049D000E901FB83EA8349915991C40FD51FEC1774
:1049E000FD0761F4808191810296840F951FE90192
:1049F00099838883828193819B838A83F0E0E0E0BE
:104A000012968D919C9113970097B9F52D913C9139
:104A10001197CD010296820F931F209111053091BD
:104A200012052817390739F6309751F510921405F9
:104A300010921305B0931205A0931105BCCFD38338
:104A4000C28340815181840F951FC817D90761F433
:104A50004E5F5F4F88819981480F591F5183408372
:104A60008A819B81938382832115310509F0B0CF20
:104A7000F0931405E09313059ECFFD01DC01C0CF38
:104A800013821282D7CFB0E0A0E0E9E4F5E20C9403
:104A900061238C01009751F4CB010E941E248C01EC
:104AA000C801CDB7DEB7E0E10C947D23FC01E60F31
:104AB000F71F9C0122503109E217F30708F49DC04B
:104AC000D901CD91DC911197C617D70798F0C53061
:104AD000D10530F3CE0104978617970708F3C61B5C
:104AE000D70B2297C193D1936D937C93CF010E94F2
:104AF000BA24D6CF5B01AC1ABD0A4C018C0E9D1EA8
:104B0000A0911305B0911405512C412CF12CE12CEE
:104B1000109731F58091110590911205881599052E
:104B200009F05CC04616570608F058C0809108018D
:104B300090910901009741F48DB79EB740910C0107
:104B400050910D01841B950BE817F90708F055C02B
:104B5000F0931205E0931105F90171836083A0CFF2
:104B60008D919C91119712966C90129713967C9050
:104B70001397A815B90559F56C0142E0C40ED11C74
:104B8000CA14DB0420F1AC014A195B09DA01129660
:104B9000159780F06282738251834083D9016D93AF
:104BA0007C93E114F10471F0D7011396FC93EE931A
:104BB000129776CF22968C0F9D1FF90191838083E7
:104BC000F301EFCFF0931405E093130569CF481676
:104BD000590608F42C017D01D3019ACFCB010E9424
:104BE0001E247C01009749F0AE01B8010E94052601
:104BF000C8010E94BA24870153CF10E000E050CFD3
:104C000081E090E0F8940C942F26FB01DC0102C0B7
:104C100001900D9241505040D8F70895FB01DC01FE
:104C200001900D920020E1F70895FB015191552369
:104C3000A9F0BF01DC014D9145174111E1F759F48D
:104C4000CD010190002049F04D9140154111C9F36B
:104C5000FB014111EFCF81E090E00197089515E04D
:104C6000C4EAD5E004C0FE010E9418242196C53A8A
:104C7000D107C9F7F894FFCFFFFFFFFFFFFFFFFF4A
:104C8000000015058000000000006C06D605030634
:104C9000B906340612062606000000005710D60595
:104CA000B113B01375090D0DDB0C720CF10B320C46
:104CB0000313110E880D7E0D830AF40A650B001292
:104CC000881129112317E7080D0A00557000446F59
:104CD000776E005269676874004C656674002C003A
:104CE000626567696E00626567696E3A4F4B0A00DC
:104CF00076657273696F6E0076657273696F6E3A6E
:104D00000053746F7000456E640053746F703A4FB7
:104D10004B002053746F7020416C6C202020005396
:104D20007461727400566572696679004275696CC7
:104D300064004275696C643A4F4B00313130002099
:104D400057656C636F6D6500203F3F3F0020524FF9
:104D5000434B2048414E440050726F636573733A71
:104D60002000204C6F313A2000204C6F323A200056
:104D7000204C6F333A2000204C6F343A2000204CF6
:104D80006F353A2000204C6F363A2000204C6F37A8
:104D90003A2000204C6F383A2000203E3E3E200052
:104DA000563A200020503A20007374726169676897
:104DB00074206361626C65206F6B006361626C6577
:104DC00020696E632E204F4B0050696E2032202FD9
:104DD00020362000446966666572656E74206361E2
:104DE000626C6500446966666572656E7420636115
:104DF000626C65206F7220646566656374697665B0
:024E00000000B0
:107E0000112484B714BE81FFF0D085E080938100F7
:107E100082E08093C00088E18093C10086E0809377
:107E2000C20080E18093C4008EE0C9D0259A86E02C
:107E300020E33CEF91E0309385002093840096BBD3
:107E4000B09BFECF1D9AA8958150A9F7CC24DD24C4
:107E500088248394B5E0AB2EA1E19A2EF3E0BF2EE7
:107E6000A2D0813461F49FD0082FAFD0023811F036
:107E7000013811F484E001C083E08DD089C08234E0
:107E800011F484E103C0853419F485E0A6D080C0E4
:107E9000853579F488D0E82EFF2485D0082F10E0AE
:107EA000102F00270E291F29000F111F8ED06801E7
:107EB0006FC0863521F484E090D080E0DECF843638
:107EC00009F040C070D06FD0082F6DD080E0C81688
:107ED00080E7D80618F4F601B7BEE895C0E0D1E017
:107EE00062D089930C17E1F7F0E0CF16F0E7DF06D8
:107EF00018F0F601B7BEE89568D007B600FCFDCFD4
:107F0000A601A0E0B1E02C9130E011968C91119780
:107F100090E0982F8827822B932B1296FA010C0160
:107F200087BEE89511244E5F5F4FF1E0A038BF0790
:107F300051F7F601A7BEE89507B600FCFDCF97BE46
:107F4000E89526C08437B1F42ED02DD0F82E2BD052
:107F50003CD0F601EF2C8F010F5F1F4F84911BD097
:107F6000EA94F801C1F70894C11CD11CFA94CF0C13
:107F7000D11C0EC0853739F428D08EE10CD085E9AC
:107F80000AD08FE07ACF813511F488E018D01DD067
:107F900080E101D065CF982F8091C00085FFFCCF94
:107FA0009093C60008958091C00087FFFCCF809118
:107FB000C00084FD01C0A8958091C6000895E0E648
:107FC000F0E098E1908380830895EDDF803219F02E
:107FD00088E0F5DFFFCF84E1DECF1F93182FE3DFCA
:107FE0001150E9F7F2DF1F91089580E0E8DFEE27F6
:047FF000FF270994CA
:027FFE00040479
:00000001FF
